{
  "_format": "hh-sol-artifact-1",
  "contractName": "MicroLoan",
  "sourceName": "contracts/MicroLoan.sol",
  "abi": [
    {
      "inputs": [
        {
          "internalType": "address",
          "name": "_usdcToken",
          "type": "address"
        },
        {
          "internalType": "address",
          "name": "_pythPriceFeed",
          "type": "address"
        },
        {
          "internalType": "bytes32",
          "name": "_ethPriceId",
          "type": "bytes32"
        }
      ],
      "stateMutability": "nonpayable",
      "type": "constructor"
    },
    {
      "anonymous": false,
      "inputs": [
        {
          "indexed": true,
          "internalType": "bytes32",
          "name": "nullifierHash",
          "type": "bytes32"
        },
        {
          "indexed": false,
          "internalType": "uint256",
          "name": "amount",
          "type": "uint256"
        }
      ],
      "name": "CollateralDeposited",
      "type": "event"
    },
    {
      "anonymous": false,
      "inputs": [
        {
          "indexed": true,
          "internalType": "address",
          "name": "owner",
          "type": "address"
        },
        {
          "indexed": false,
          "internalType": "uint256",
          "name": "timestamp",
          "type": "uint256"
        }
      ],
      "name": "ContractReset",
      "type": "event"
    },
    {
      "anonymous": false,
      "inputs": [
        {
          "indexed": true,
          "internalType": "bytes32",
          "name": "nullifierHash",
          "type": "bytes32"
        },
        {
          "indexed": false,
          "internalType": "uint256",
          "name": "amount",
          "type": "uint256"
        }
      ],
      "name": "InterestPaid",
      "type": "event"
    },
    {
      "anonymous": false,
      "inputs": [
        {
          "indexed": true,
          "internalType": "bytes32",
          "name": "nullifierHash",
          "type": "bytes32"
        },
        {
          "indexed": false,
          "internalType": "uint256",
          "name": "loanAmount",
          "type": "uint256"
        },
        {
          "indexed": false,
          "internalType": "uint256",
          "name": "collateralAmount",
          "type": "uint256"
        }
      ],
      "name": "LoanLiquidated",
      "type": "event"
    },
    {
      "anonymous": false,
      "inputs": [
        {
          "indexed": true,
          "internalType": "bytes32",
          "name": "nullifierHash",
          "type": "bytes32"
        },
        {
          "indexed": false,
          "internalType": "uint256",
          "name": "amount",
          "type": "uint256"
        }
      ],
      "name": "LoanRepaid",
      "type": "event"
    },
    {
      "anonymous": false,
      "inputs": [
        {
          "indexed": true,
          "internalType": "bytes32",
          "name": "nullifierHash",
          "type": "bytes32"
        },
        {
          "indexed": false,
          "internalType": "uint256",
          "name": "loanAmount",
          "type": "uint256"
        },
        {
          "indexed": false,
          "internalType": "uint256",
          "name": "collateralAmount",
          "type": "uint256"
        }
      ],
      "name": "LoanTaken",
      "type": "event"
    },
    {
      "anonymous": false,
      "inputs": [
        {
          "indexed": true,
          "internalType": "address",
          "name": "previousOwner",
          "type": "address"
        },
        {
          "indexed": true,
          "internalType": "address",
          "name": "newOwner",
          "type": "address"
        }
      ],
      "name": "OwnershipTransferred",
      "type": "event"
    },
    {
      "anonymous": false,
      "inputs": [
        {
          "indexed": false,
          "internalType": "address",
          "name": "account",
          "type": "address"
        }
      ],
      "name": "Paused",
      "type": "event"
    },
    {
      "anonymous": false,
      "inputs": [
        {
          "indexed": true,
          "internalType": "bytes32",
          "name": "nullifierHash",
          "type": "bytes32"
        },
        {
          "indexed": false,
          "internalType": "uint256",
          "name": "amount",
          "type": "uint256"
        }
      ],
      "name": "USDCDeposited",
      "type": "event"
    },
    {
      "anonymous": false,
      "inputs": [
        {
          "indexed": true,
          "internalType": "bytes32",
          "name": "nullifierHash",
          "type": "bytes32"
        },
        {
          "indexed": false,
          "internalType": "uint256",
          "name": "amount",
          "type": "uint256"
        },
        {
          "indexed": false,
          "internalType": "uint256",
          "name": "interest",
          "type": "uint256"
        }
      ],
      "name": "USDCWithdrawn",
      "type": "event"
    },
    {
      "anonymous": false,
      "inputs": [
        {
          "indexed": false,
          "internalType": "address",
          "name": "account",
          "type": "address"
        }
      ],
      "name": "Unpaused",
      "type": "event"
    },
    {
      "anonymous": false,
      "inputs": [
        {
          "indexed": true,
          "internalType": "bytes32",
          "name": "nullifierHash",
          "type": "bytes32"
        }
      ],
      "name": "WorldIDVerified",
      "type": "event"
    },
    {
      "inputs": [],
      "name": "BASIS_POINTS",
      "outputs": [
        {
          "internalType": "uint256",
          "name": "",
          "type": "uint256"
        }
      ],
      "stateMutability": "view",
      "type": "function"
    },
    {
      "inputs": [],
      "name": "COLLATERAL_RATIO",
      "outputs": [
        {
          "internalType": "uint256",
          "name": "",
          "type": "uint256"
        }
      ],
      "stateMutability": "view",
      "type": "function"
    },
    {
      "inputs": [],
      "name": "DAILY_INTEREST_RATE",
      "outputs": [
        {
          "internalType": "uint256",
          "name": "",
          "type": "uint256"
        }
      ],
      "stateMutability": "view",
      "type": "function"
    },
    {
      "inputs": [],
      "name": "INTEREST_RATE",
      "outputs": [
        {
          "internalType": "uint256",
          "name": "",
          "type": "uint256"
        }
      ],
      "stateMutability": "view",
      "type": "function"
    },
    {
      "inputs": [],
      "name": "LENDER_LOCK_PERIOD",
      "outputs": [
        {
          "internalType": "uint256",
          "name": "",
          "type": "uint256"
        }
      ],
      "stateMutability": "view",
      "type": "function"
    },
    {
      "inputs": [],
      "name": "LIQUIDATION_THRESHOLD",
      "outputs": [
        {
          "internalType": "uint256",
          "name": "",
          "type": "uint256"
        }
      ],
      "stateMutability": "view",
      "type": "function"
    },
    {
      "inputs": [],
      "name": "LOAN_DURATION",
      "outputs": [
        {
          "internalType": "uint256",
          "name": "",
          "type": "uint256"
        }
      ],
      "stateMutability": "view",
      "type": "function"
    },
    {
      "inputs": [
        {
          "internalType": "uint256",
          "name": "",
          "type": "uint256"
        }
      ],
      "name": "activeBorrowers",
      "outputs": [
        {
          "internalType": "bytes32",
          "name": "",
          "type": "bytes32"
        }
      ],
      "stateMutability": "view",
      "type": "function"
    },
    {
      "inputs": [
        {
          "internalType": "uint256",
          "name": "",
          "type": "uint256"
        }
      ],
      "name": "activeLenders",
      "outputs": [
        {
          "internalType": "bytes32",
          "name": "",
          "type": "bytes32"
        }
      ],
      "stateMutability": "view",
      "type": "function"
    },
    {
      "inputs": [],
      "name": "availableUSDC",
      "outputs": [
        {
          "internalType": "uint256",
          "name": "",
          "type": "uint256"
        }
      ],
      "stateMutability": "view",
      "type": "function"
    },
    {
      "inputs": [
        {
          "internalType": "bytes32",
          "name": "nullifierHash",
          "type": "bytes32"
        }
      ],
      "name": "calculateBorrowerInterest",
      "outputs": [
        {
          "internalType": "uint256",
          "name": "",
          "type": "uint256"
        }
      ],
      "stateMutability": "view",
      "type": "function"
    },
    {
      "inputs": [
        {
          "internalType": "bytes32",
          "name": "nullifierHash",
          "type": "bytes32"
        }
      ],
      "name": "calculateLenderInterest",
      "outputs": [
        {
          "internalType": "uint256",
          "name": "",
          "type": "uint256"
        }
      ],
      "stateMutability": "view",
      "type": "function"
    },
    {
      "inputs": [
        {
          "internalType": "bytes32",
          "name": "nullifierHash",
          "type": "bytes32"
        }
      ],
      "name": "depositCollateral",
      "outputs": [],
      "stateMutability": "payable",
      "type": "function"
    },
    {
      "inputs": [
        {
          "internalType": "uint256",
          "name": "amount",
          "type": "uint256"
        },
        {
          "internalType": "bytes32",
          "name": "nullifierHash",
          "type": "bytes32"
        }
      ],
      "name": "depositUSDC",
      "outputs": [],
      "stateMutability": "nonpayable",
      "type": "function"
    },
    {
      "inputs": [
        {
          "internalType": "bytes32",
          "name": "",
          "type": "bytes32"
        }
      ],
      "name": "deposits",
      "outputs": [
        {
          "internalType": "uint256",
          "name": "amount",
          "type": "uint256"
        },
        {
          "internalType": "uint256",
          "name": "depositTime",
          "type": "uint256"
        },
        {
          "internalType": "uint256",
          "name": "lockEndTime",
          "type": "uint256"
        },
        {
          "internalType": "uint256",
          "name": "lastInterestCalcTime",
          "type": "uint256"
        },
        {
          "internalType": "uint256",
          "name": "interestEarned",
          "type": "uint256"
        }
      ],
      "stateMutability": "view",
      "type": "function"
    },
    {
      "inputs": [],
      "name": "distributeInterest",
      "outputs": [],
      "stateMutability": "nonpayable",
      "type": "function"
    },
    {
      "inputs": [],
      "name": "emergencyWithdrawAllAndResetForTesting",
      "outputs": [],
      "stateMutability": "nonpayable",
      "type": "function"
    },
    {
      "inputs": [],
      "name": "emergencyWithdrawAllForTesting",
      "outputs": [],
      "stateMutability": "nonpayable",
      "type": "function"
    },
    {
      "inputs": [],
      "name": "ethPriceId",
      "outputs": [
        {
          "internalType": "bytes32",
          "name": "",
          "type": "bytes32"
        }
      ],
      "stateMutability": "view",
      "type": "function"
    },
    {
      "inputs": [
        {
          "internalType": "uint256",
          "name": "ethAmount",
          "type": "uint256"
        }
      ],
      "name": "getCollateralValue",
      "outputs": [
        {
          "internalType": "uint256",
          "name": "",
          "type": "uint256"
        }
      ],
      "stateMutability": "view",
      "type": "function"
    },
    {
      "inputs": [
        {
          "internalType": "bytes32",
          "name": "nullifierHash",
          "type": "bytes32"
        }
      ],
      "name": "getDepositInfo",
      "outputs": [
        {
          "internalType": "uint256",
          "name": "amount",
          "type": "uint256"
        },
        {
          "internalType": "uint256",
          "name": "depositTime",
          "type": "uint256"
        },
        {
          "internalType": "uint256",
          "name": "lockEndTime",
          "type": "uint256"
        },
        {
          "internalType": "uint256",
          "name": "interestEarned",
          "type": "uint256"
        }
      ],
      "stateMutability": "view",
      "type": "function"
    },
    {
      "inputs": [],
      "name": "getETHPrice",
      "outputs": [
        {
          "internalType": "uint256",
          "name": "",
          "type": "uint256"
        }
      ],
      "stateMutability": "view",
      "type": "function"
    },
    {
      "inputs": [
        {
          "internalType": "bytes32",
          "name": "nullifierHash",
          "type": "bytes32"
        }
      ],
      "name": "getLoanInfo",
      "outputs": [
        {
          "internalType": "uint256",
          "name": "loanAmount",
          "type": "uint256"
        },
        {
          "internalType": "uint256",
          "name": "collateralAmount",
          "type": "uint256"
        },
        {
          "internalType": "uint256",
          "name": "startTime",
          "type": "uint256"
        },
        {
          "internalType": "uint256",
          "name": "endTime",
          "type": "uint256"
        },
        {
          "internalType": "bool",
          "name": "active",
          "type": "bool"
        },
        {
          "internalType": "bool",
          "name": "liquidated",
          "type": "bool"
        },
        {
          "internalType": "uint256",
          "name": "interest",
          "type": "uint256"
        }
      ],
      "stateMutability": "view",
      "type": "function"
    },
    {
      "inputs": [
        {
          "internalType": "bytes32",
          "name": "nullifierHash",
          "type": "bytes32"
        }
      ],
      "name": "liquidateLoan",
      "outputs": [],
      "stateMutability": "nonpayable",
      "type": "function"
    },
    {
      "inputs": [
        {
          "internalType": "bytes32",
          "name": "",
          "type": "bytes32"
        }
      ],
      "name": "loans",
      "outputs": [
        {
          "internalType": "uint256",
          "name": "loanAmount",
          "type": "uint256"
        },
        {
          "internalType": "uint256",
          "name": "collateralAmount",
          "type": "uint256"
        },
        {
          "internalType": "uint256",
          "name": "startTime",
          "type": "uint256"
        },
        {
          "internalType": "uint256",
          "name": "endTime",
          "type": "uint256"
        },
        {
          "internalType": "uint256",
          "name": "lastInterestCalcTime",
          "type": "uint256"
        },
        {
          "internalType": "uint256",
          "name": "interestAccrued",
          "type": "uint256"
        },
        {
          "internalType": "bool",
          "name": "active",
          "type": "bool"
        },
        {
          "internalType": "bool",
          "name": "liquidated",
          "type": "bool"
        }
      ],
      "stateMutability": "view",
      "type": "function"
    },
    {
      "inputs": [
        {
          "internalType": "bytes32",
          "name": "",
          "type": "bytes32"
        }
      ],
      "name": "nullifierRegistered",
      "outputs": [
        {
          "internalType": "bool",
          "name": "",
          "type": "bool"
        }
      ],
      "stateMutability": "view",
      "type": "function"
    },
    {
      "inputs": [],
      "name": "owner",
      "outputs": [
        {
          "internalType": "address",
          "name": "",
          "type": "address"
        }
      ],
      "stateMutability": "view",
      "type": "function"
    },
    {
      "inputs": [],
      "name": "pause",
      "outputs": [],
      "stateMutability": "nonpayable",
      "type": "function"
    },
    {
      "inputs": [],
      "name": "paused",
      "outputs": [
        {
          "internalType": "bool",
          "name": "",
          "type": "bool"
        }
      ],
      "stateMutability": "view",
      "type": "function"
    },
    {
      "inputs": [],
      "name": "platformFeeRate",
      "outputs": [
        {
          "internalType": "uint256",
          "name": "",
          "type": "uint256"
        }
      ],
      "stateMutability": "view",
      "type": "function"
    },
    {
      "inputs": [],
      "name": "pythPriceFeed",
      "outputs": [
        {
          "internalType": "contract IPyth",
          "name": "",
          "type": "address"
        }
      ],
      "stateMutability": "view",
      "type": "function"
    },
    {
      "inputs": [
        {
          "internalType": "address",
          "name": "token",
          "type": "address"
        },
        {
          "internalType": "uint256",
          "name": "amount",
          "type": "uint256"
        }
      ],
      "name": "recoverERC20",
      "outputs": [],
      "stateMutability": "nonpayable",
      "type": "function"
    },
    {
      "inputs": [],
      "name": "renounceOwnership",
      "outputs": [],
      "stateMutability": "nonpayable",
      "type": "function"
    },
    {
      "inputs": [
        {
          "internalType": "uint256",
          "name": "amount",
          "type": "uint256"
        },
        {
          "internalType": "bytes32",
          "name": "nullifierHash",
          "type": "bytes32"
        }
      ],
      "name": "repayLoan",
      "outputs": [],
      "stateMutability": "nonpayable",
      "type": "function"
    },
    {
      "inputs": [
        {
          "internalType": "uint256",
          "name": "newFeeRate",
          "type": "uint256"
        }
      ],
      "name": "setPlatformFeeRate",
      "outputs": [],
      "stateMutability": "nonpayable",
      "type": "function"
    },
    {
      "inputs": [
        {
          "internalType": "uint256",
          "name": "loanAmount",
          "type": "uint256"
        },
        {
          "internalType": "bytes32",
          "name": "nullifierHash",
          "type": "bytes32"
        },
        {
          "internalType": "address",
          "name": "recipient",
          "type": "address"
        }
      ],
      "name": "takeLoan",
      "outputs": [],
      "stateMutability": "nonpayable",
      "type": "function"
    },
    {
      "inputs": [],
      "name": "totalUSDCDeposited",
      "outputs": [
        {
          "internalType": "uint256",
          "name": "",
          "type": "uint256"
        }
      ],
      "stateMutability": "view",
      "type": "function"
    },
    {
      "inputs": [],
      "name": "totalUSDCLoaned",
      "outputs": [
        {
          "internalType": "uint256",
          "name": "",
          "type": "uint256"
        }
      ],
      "stateMutability": "view",
      "type": "function"
    },
    {
      "inputs": [
        {
          "internalType": "address",
          "name": "newOwner",
          "type": "address"
        }
      ],
      "name": "transferOwnership",
      "outputs": [],
      "stateMutability": "nonpayable",
      "type": "function"
    },
    {
      "inputs": [],
      "name": "unpause",
      "outputs": [],
      "stateMutability": "nonpayable",
      "type": "function"
    },
    {
      "inputs": [],
      "name": "usdcToken",
      "outputs": [
        {
          "internalType": "contract IERC20",
          "name": "",
          "type": "address"
        }
      ],
      "stateMutability": "view",
      "type": "function"
    },
    {
      "inputs": [],
      "name": "withdrawAllETHForTesting",
      "outputs": [],
      "stateMutability": "nonpayable",
      "type": "function"
    },
    {
      "inputs": [],
      "name": "withdrawAllUSDCForTesting",
      "outputs": [],
      "stateMutability": "nonpayable",
      "type": "function"
    },
    {
      "inputs": [
        {
          "internalType": "uint256",
          "name": "amount",
          "type": "uint256"
        }
      ],
      "name": "withdrawPlatformFees",
      "outputs": [],
      "stateMutability": "nonpayable",
      "type": "function"
    },
    {
      "inputs": [
        {
          "internalType": "uint256",
          "name": "amount",
          "type": "uint256"
        },
        {
          "internalType": "bytes32",
          "name": "nullifierHash",
          "type": "bytes32"
        },
        {
          "internalType": "address",
          "name": "recipient",
          "type": "address"
        }
      ],
      "name": "withdrawUSDC",
      "outputs": [],
      "stateMutability": "nonpayable",
      "type": "function"
    }
  ],
  "bytecode": "0x6080604052606460055534801561001557600080fd5b50604051612b9d380380612b9d833981016040819052610034916100fa565b60016000819055805460ff1916905561004c33610084565b600280546001600160a01b039485166001600160a01b0319918216179091556003805493909416921691909117909155600455610136565b600180546001600160a01b03838116610100818102610100600160a81b031985161790945560405193909204169182907f8be0079c531659141344cd1fd0a4f28419497f9722a3daafe3b4186f6b6457e090600090a35050565b80516001600160a01b03811681146100f557600080fd5b919050565b60008060006060848603121561010f57600080fd5b610118846100de565b9250610126602085016100de565b9150604084015190509250925092565b612a58806101456000396000f3fe6080604052600436106102725760003560e01c80638c2280a51161014f578063be5c785c116100c1578063e02a4dfd1161007a578063e02a4dfd1461080c578063e1f1c4a714610823578063e68abdab14610839578063e96ba32e1461084e578063eeca08f01461086e578063f2fde38b1461088457600080fd5b8063be5c785c146106f1578063c4a9081514610708578063cde57d97146107ab578063cfe68a4e146107cb578063d0ba5a73146107e1578063d9e69a05146107f757600080fd5b806396276e4f1161011357806396276e4f146106185780639c4c3bfe146106385780639eb787981461064e578063a31344891461066e578063a607a8d914610683578063b61570901461069857600080fd5b80638c2280a51461058b5780638da5cb5b146105ab57806390a8ae9b146105ce578063927fef2e146105e357806393f435051461060357600080fd5b80635b72a33a116101e85780636aa21416116101ac5780636aa21416146104ec578063715018a61461050c57806382fee08f146105215780638456cb59146105415780638980f11f146105565780638b3651ad1461057657600080fd5b80635b72a33a1461046b5780635c975abb146104815780635f24008114610499578063607e1f2b146104b957806363783af9146104d957600080fd5b806322c4b9371161023a57806322c4b9371461034f5780632b78caad146103645780633d4dff7b146103845780633f4ba83a146103f657806345bd28751461040b5780635ad1cc7b1461044b57600080fd5b80630665c08c14610277578063094d4098146102bc57806311eac855146102d35780631ea822211461030b578063208014e71461032f575b600080fd5b34801561028357600080fd5b506102a76102923660046125cf565b60066020526000908152604090205460ff1681565b60405190151581526020015b60405180910390f35b3480156102c857600080fd5b506102d16108a4565b005b3480156102df57600080fd5b506002546102f3906001600160a01b031681565b6040516001600160a01b0390911681526020016102b3565b34801561031757600080fd5b5061032160095481565b6040519081526020016102b3565b34801561033b57600080fd5b5061032161034a3660046125cf565b61094c565b34801561035b57600080fd5b5061032161096d565b34801561037057600080fd5b5061032161037f3660046125cf565b61097e565b34801561039057600080fd5b506103ce61039f3660046125cf565b600c60205260009081526040902080546001820154600283015460038401546004909401549293919290919085565b604080519586526020860194909452928401919091526060830152608082015260a0016102b3565b34801561040257600080fd5b506102d16109fb565b34801561041757600080fd5b5061042b6104263660046125cf565b610a0d565b6040805194855260208501939093529183015260608201526080016102b3565b34801561045757600080fd5b506103216104663660046125cf565b610a45565b34801561047757600080fd5b506103216105dc81565b34801561048d57600080fd5b5060015460ff166102a7565b3480156104a557600080fd5b506102d16104b43660046125e8565b610b1e565b3480156104c557600080fd5b506102d16104d43660046125cf565b610dcb565b6102d16104e73660046125cf565b610f9a565b3480156104f857600080fd5b506102d16105073660046125cf565b611108565b34801561051857600080fd5b506102d161112a565b34801561052d57600080fd5b5061032161053c3660046125cf565b61113c565b34801561054d57600080fd5b506102d161116e565b34801561056257600080fd5b506102d1610571366004612626565b61117e565b34801561058257600080fd5b506102d1611201565b34801561059757600080fd5b506102d16105a6366004612650565b6112ba565b3480156105b757600080fd5b5060015461010090046001600160a01b03166102f3565b3480156105da57600080fd5b50610321606e81565b3480156105ef57600080fd5b506102d16105fe3660046125cf565b6114bc565b34801561060f57600080fd5b506102d161150a565b34801561062457600080fd5b506003546102f3906001600160a01b031681565b34801561064457600080fd5b5061032160085481565b34801561065a57600080fd5b506103216106693660046125cf565b61158a565b34801561067a57600080fd5b506102d161159a565b34801561068f57600080fd5b50610321611864565b3480156106a457600080fd5b506106b86106b33660046125cf565b611957565b60408051978852602088019690965294860193909352606085019190915215156080840152151560a083015260c082015260e0016102b3565b3480156106fd57600080fd5b5061032162093a8081565b34801561071457600080fd5b5061076c6107233660046125cf565b600a602052600090815260409020805460018201546002830154600384015460048501546005860154600690960154949593949293919290919060ff8082169161010090041688565b604080519889526020890197909752958701949094526060860192909252608085015260a0840152151560c0830152151560e0820152610100016102b3565b3480156107b757600080fd5b506102d16107c6366004612650565b6119b2565b3480156107d757600080fd5b5061032160045481565b3480156107ed57600080fd5b5061032160075481565b34801561080357600080fd5b50610321606481565b34801561081857600080fd5b5061032162278d0081565b34801561082f57600080fd5b5061032161271081565b34801561084557600080fd5b506102d1611cd4565b34801561085a57600080fd5b506102d16108693660046125e8565b611dea565b34801561087a57600080fd5b5061032160055481565b34801561089057600080fd5b506102d161089f366004612685565b611fe3565b6108ac612059565b6002546040516370a0823160e01b81523060048201526000916001600160a01b0316906370a0823190602401602060405180830381865afa1580156108f5573d6000803e3d6000fd5b505050506040513d601f19601f8201168201806040525081019061091991906126a0565b90506109496109366001546001600160a01b036101009091041690565b6002546001600160a01b031690836120b9565b50565b600d818154811061095c57600080fd5b600091825260209091200154905081565b61097b61016d6105dc6126cf565b81565b6000818152600a60205260408120600681015460ff166109a15750600092915050565b60008160040154426109b391906126f1565b90506109c46127106201518061270a565b816109d361016d6105dc6126cf565b84546109df919061270a565b6109e9919061270a565b6109f391906126cf565b949350505050565b610a03612059565b610a0b61211c565b565b6000818152600c60205260408120819081908190610a2a86610a45565b81546001830154600290930154909892975095509350915050565b6000818152600c6020526040812080548203610a645750600092915050565b6000816003015442610a7691906126f1565b90506000610a896127106201518061270a565b82610a9861016d6105dc6126cf565b8554610aa4919061270a565b610aae919061270a565b610ab891906126cf565b905060008060075411610acc576000610ae9565b600754612710600854610adf919061270a565b610ae991906126cf565b9050612710610af8828461270a565b610b0291906126cf565b9150818460040154610b149190612721565b9695505050505050565b610b2661216e565b610b2e612059565b60008181526006602052604090205460ff16610b655760405162461bcd60e51b8152600401610b5c90612734565b60405180910390fd5b6000818152600a60205260409020600681015460ff16610bb85760405162461bcd60e51b815260206004820152600e60248201526d27379030b1ba34bb32903637b0b760911b6044820152606401610b5c565b6000610bc38361097e565b90506000818360000154610bd79190612721565b905080851115610c295760405162461bcd60e51b815260206004820152601860248201527f416d6f756e74206578636565647320746f74616c2064756500000000000000006044820152606401610b5c565b600254610c41906001600160a01b03163330886121c7565b6000828611610c505785610c52565b825b90506000610c6082886126f1565b905083856005016000828254610c769190612721565b9091555050426004860155845481908690600090610c959084906126f1565b90915550508454600003610d545760068501805460ff19169055600185018054600091829055604051909190339083908381818185875af1925050503d8060008114610cfd576040519150601f19603f3d011682016040523d82523d6000602084013e610d02565b606091505b5050905080610d235760405162461bcd60e51b8152600401610b5c90612761565b610d2c88612205565b610d36868a6126f1565b60086000828254610d4791906126f1565b90915550610d6c92505050565b8060086000828254610d6691906126f1565b90915550505b8660096000828254610d7e9190612721565b909155505060405187815286907f1d7f9b884cc43b9a5c67bd7c6f6fb5ddb8cb3eb3994e934e8448d7bf4a4a25c99060200160405180910390a25050505050610dc76001600055565b5050565b610dd361216e565b610ddb612059565b60008181526006602052604090205460ff16610e095760405162461bcd60e51b8152600401610b5c90612734565b6000818152600a60205260409020600681015460ff16610e5c5760405162461bcd60e51b815260206004820152600e60248201526d27379030b1ba34bb32903637b0b760911b6044820152606401610b5c565b60008160030154421190506000610e76836001015461113c565b90506000610e838561097e565b90506000818560000154610e979190612721565b90506000612710610ea9606e8461270a565b610eb391906126cf565b841090508480610ec05750805b610f0c5760405162461bcd60e51b815260206004820152601960248201527f4c6f616e2063616e6e6f74206265206c697175696461746564000000000000006044820152606401610b5c565b60068601805461ffff191661010017905585546001870154610f2d89612205565b875460088054600090610f419084906126f1565b90915550506000600189015560408051838152602081018390528a917fd6283500ef1b12f05f0ed1aacebc476c1b2bd1ce91390610eb7b8f7dc02819c1910160405180910390a250505050505050506109496001600055565b610fa261216e565b610faa6122b3565b610fb2612059565b60003411610ff55760405162461bcd60e51b815260206004820152601060248201526f09aeae6e840c8cae0dee6d2e8408aa8960831b6044820152606401610b5c565b60008181526006602052604090205460ff1661104c57600081815260066020526040808220805460ff191660011790555182917f7ee82f966e9545809fd7229a733b84223f7b0c176da17e51ceebfd07686c655d91a25b6000818152600a602052604090206006015460ff16156110a35760405162461bcd60e51b8152602060048201526012602482015271416374697665206c6f616e2065786973747360701b6044820152606401610b5c565b6000818152600a6020526040812060010180543492906110c4908490612721565b909155505060405134815281907fd752175fe73028b933ce110fbf0ff2e6e254cd0384b5773960fe1114e29bdda69060200160405180910390a26109496001600055565b611110612059565b6001546109499061010090046001600160a01b0316610936565b611132612059565b610a0b60006122f9565b600080611147611864565b905068056bc75e2d6310000061115d828561270a565b61116791906126cf565b9392505050565b611176612059565b610a0b612353565b611186612059565b6002546001600160a01b03908116908316036111db5760405162461bcd60e51b815260206004820152601460248201527343616e6e6f74207769746864726177205553444360601b6044820152606401610b5c565b600154610dc79061010090046001600160a01b03166001600160a01b03841690836120b9565b611209612059565b60005b600d54811015610949576000600d828154811061122b5761122b61278e565b6000918252602080832090910154808352600c909152604082209092509061125283610a45565b905080156112af578082600401600082825461126e9190612721565b909155505042600383015560405181815283907fe69ccab5112cf0689ad0ec91e2085e9ac2b54e5ee4326d4fa833c0391e6fcd9b9060200160405180910390a25b50505060010161120c565b6112c261216e565b6112ca612059565b60008281526006602052604090205460ff166112f85760405162461bcd60e51b8152600401610b5c90612734565b6000828152600c60205260409020805484111561134e5760405162461bcd60e51b8152602060048201526014602482015273496e73756666696369656e742062616c616e636560601b6044820152606401610b5c565b806002015442101561139a5760405162461bcd60e51b8152602060048201526015602482015274131bd8dac81c195c9a5bd9081b9bdd08195b991959605a1b6044820152606401610b5c565b60006113a584610a45565b905060006113b38287612721565b90508060095410156114005760405162461bcd60e51b8152602060048201526016602482015275496e73756666696369656e74206c697175696469747960501b6044820152606401610b5c565b8583600001600082825461141491906126f1565b90915550506000600484018190554260038501556007805488929061143a9084906126f1565b92505081905550806009600082825461145391906126f1565b909155505060025461146f906001600160a01b031685836120b9565b604080518781526020810184905286917faff40e2418c7a4f94fe16b31b416b6faff73b79546591c9617c2419fc6c68fd3910160405180910390a25050506114b76001600055565b505050565b6114c4612059565b6103e88111156115055760405162461bcd60e51b815260206004820152600c60248201526b08ccaca40e8dede40d0d2ced60a31b6044820152606401610b5c565b600555565b611512612059565b60015460405160009161010090046001600160a01b03169047908381818185875af1925050503d8060008114611564576040519150601f19603f3d011682016040523d82523d6000602084013e611569565b606091505b50509050806109495760405162461bcd60e51b8152600401610b5c90612761565b600b818154811061095c57600080fd5b6115a2612059565b6002546040516370a0823160e01b81523060048201526000916001600160a01b0316906370a0823190602401602060405180830381865afa1580156115eb573d6000803e3d6000fd5b505050506040513d601f19601f8201168201806040525081019061160f91906126a0565b90508015611631576001546116319061010090046001600160a01b0316610936565b4780156116b25760015460405160009161010090046001600160a01b03169083908381818185875af1925050503d806000811461168a576040519150601f19603f3d011682016040523d82523d6000602084013e61168f565b606091505b50509050806116b05760405162461bcd60e51b8152600401610b5c90612761565b505b60005b600b5481101561172b576000600b82815481106116d4576116d461278e565b60009182526020808320909101548252600a90526040812081815560018082018390556002820183905560038201839055600482018390556005820192909255600601805461ffff191690559190910190506116b5565b505b600b541561176157600b805480611746576117466127a4565b6001900381819060005260206000200160009055905561172d565b60005b600d548110156117c8576000600d82815481106117835761178361278e565b60009182526020808320909101548252600c90526040812081815560018082018390556002820183905560038201839055600490910191909155919091019050611764565b505b600d54156117fe57600d8054806117e3576117e36127a4565b600190038181906000526020600020016000905590556117ca565b60006007819055600881905560095560015461010090046001600160a01b03166001600160a01b03167f52792a7f5b0a52571949f1e7fb3a5a1672bd8a877707942a21cb3300fa02d1014260405161185891815260200190565b60405180910390a25050565b600354600480546040516396834ad360e01b81529182015260009182916001600160a01b03909116906396834ad390602401608060405180830381865afa1580156118b3573d6000803e3d6000fd5b505050506040513d601f19601f820116820180604052508101906118d791906127e4565b8051604082015191925067ffffffffffffffff16906000600382900b121561192657600061190482612877565b60030b905061191481600a612981565b61191e908461270a565b925050611950565b60008160030b131561195057600381900b61194281600a612981565b61194c90846126cf565b9250505b5092915050565b6000818152600a6020526040812081908190819081908190819061197a8961097e565b8154600183015460028401546003850154600690950154929d919c509a5092985060ff80821698506101009091041695509350915050565b6119ba61216e565b6119c26122b3565b6119ca612059565b60008281526006602052604090205460ff166119f85760405162461bcd60e51b8152600401610b5c90612734565b60008311611a535760405162461bcd60e51b815260206004820152602260248201527f4c6f616e20616d6f756e74206d7573742062652067726561746572207468616e604482015261020360f41b6064820152608401610b5c565b6000828152600a6020526040902060010154611ab15760405162461bcd60e51b815260206004820152601760248201527f4e6f20636f6c6c61746572616c206465706f73697465640000000000000000006044820152606401610b5c565b6000828152600a602052604090206006015460ff1615611b095760405162461bcd60e51b81526020600482015260136024820152724c6f616e20616c72656164792061637469766560681b6044820152606401610b5c565b826009541015611b545760405162461bcd60e51b8152602060048201526016602482015275496e73756666696369656e74206c697175696469747960501b6044820152606401610b5c565b6000828152600a6020526040812060010154611b6f9061113c565b905080841115611bc15760405162461bcd60e51b815260206004820152601d60248201527f4c6f616e206578636565647320636f6c6c61746572616c2076616c75650000006044820152606401610b5c565b6000838152600a602052604090208481554260028201819055611be89062278d0090612721565b600382015542600482015560068101805460ff19166001908117909155600b8054918201815560009081527f0175b7a638427703f0dbe7bb9bbf987a2551717b34e79f33b5b1008d1fa01db990910185905560088054879290611c4c908490612721565b925050819055508460096000828254611c6591906126f1565b9091555050600254611c81906001600160a01b031684876120b9565b837f58c46b7af1853920ebfad6b25ccfa1661c5f505a1e07aac6626d05922b22196b868360010154604051611cc0929190918252602082015260400190565b60405180910390a250506114b76001600055565b611cdc612059565b6002546040516370a0823160e01b81523060048201526000916001600160a01b0316906370a0823190602401602060405180830381865afa158015611d25573d6000803e3d6000fd5b505050506040513d601f19601f82011682018060405250810190611d4991906126a0565b90508015611d6b57600154611d6b9061010090046001600160a01b0316610936565b478015610dc75760015460405160009161010090046001600160a01b03169083908381818185875af1925050503d8060008114611dc4576040519150601f19603f3d011682016040523d82523d6000602084013e611dc9565b606091505b50509050806114b75760405162461bcd60e51b8152600401610b5c90612761565b611df261216e565b611dfa6122b3565b611e02612059565b60008211611e525760405162461bcd60e51b815260206004820152601d60248201527f416d6f756e74206d7573742062652067726561746572207468616e20300000006044820152606401610b5c565b60008181526006602052604090205460ff16611ea957600081815260066020526040808220805460ff191660011790555182917f7ee82f966e9545809fd7229a733b84223f7b0c176da17e51ceebfd07686c655d91a25b600254611ec1906001600160a01b03163330856121c7565b6000818152600c60205260408120549003611f0c57600d80546001810182556000919091527fd7b6990105719101dabeb77144f2a3385c8033acd3af97e9423a695e81ad1eb5018190555b6000818152600c602052604081208054849290611f2a908490612721565b90915550506000818152600c60205260409020426001909101819055611f549062093a8090612721565b6000828152600c6020526040812060028101929092554260039092019190915560078054849290611f86908490612721565b925050819055508160096000828254611f9f9190612721565b909155505060405182815281907f6893f4f8a22103888f56c27030c84aaae73f769915bfdc2591cd403c5bf6b1489060200160405180910390a2610dc76001600055565b611feb612059565b6001600160a01b0381166120505760405162461bcd60e51b815260206004820152602660248201527f4f776e61626c653a206e6577206f776e657220697320746865207a65726f206160448201526564647265737360d01b6064820152608401610b5c565b610949816122f9565b6001546001600160a01b03610100909104163314610a0b5760405162461bcd60e51b815260206004820181905260248201527f4f776e61626c653a2063616c6c6572206973206e6f7420746865206f776e65726044820152606401610b5c565b6040516001600160a01b0383166024820152604481018290526114b790849063a9059cbb60e01b906064015b60408051601f198184030181529190526020810180516001600160e01b03166001600160e01b03199093169290921790915261238e565b612124612463565b6001805460ff191690557f5db9ee0a495bf2e6ff9c91a7834c1ba4fdd244a5e8aa4e537bd38aeae4b073aa335b6040516001600160a01b03909116815260200160405180910390a1565b6002600054036121c05760405162461bcd60e51b815260206004820152601f60248201527f5265656e7472616e637947756172643a207265656e7472616e742063616c6c006044820152606401610b5c565b6002600055565b6040516001600160a01b03808516602483015283166044820152606481018290526121ff9085906323b872dd60e01b906084016120e5565b50505050565b60005b600b54811015610dc75781600b82815481106122265761222661278e565b9060005260206000200154036122ab57600b8054612246906001906126f1565b815481106122565761225661278e565b9060005260206000200154600b82815481106122745761227461278e565b600091825260209091200155600b805480612291576122916127a4565b600190038181906000526020600020016000905590555050565b600101612208565b60015460ff1615610a0b5760405162461bcd60e51b815260206004820152601060248201526f14185d5cd8589b194e881c185d5cd95960821b6044820152606401610b5c565b600180546001600160a01b03838116610100818102610100600160a81b031985161790945560405193909204169182907f8be0079c531659141344cd1fd0a4f28419497f9722a3daafe3b4186f6b6457e090600090a35050565b61235b6122b3565b6001805460ff1916811790557f62e78cea01bee320cd4e420270b5ea74000d11b0c9f74754ebdbfc544b05a25833612151565b60006123e3826040518060400160405280602081526020017f5361666545524332303a206c6f772d6c6576656c2063616c6c206661696c6564815250856001600160a01b03166124ac9092919063ffffffff16565b9050805160001480612404575080806020019051810190612404919061298d565b6114b75760405162461bcd60e51b815260206004820152602a60248201527f5361666545524332303a204552433230206f7065726174696f6e20646964206e6044820152691bdd081cdd58d8d9595960b21b6064820152608401610b5c565b60015460ff16610a0b5760405162461bcd60e51b815260206004820152601460248201527314185d5cd8589b194e881b9bdd081c185d5cd95960621b6044820152606401610b5c565b60606109f3848460008585600080866001600160a01b031685876040516124d391906129d3565b60006040518083038185875af1925050503d8060008114612510576040519150601f19603f3d011682016040523d82523d6000602084013e612515565b606091505b509150915061252687838387612531565b979650505050505050565b606083156125a0578251600003612599576001600160a01b0385163b6125995760405162461bcd60e51b815260206004820152601d60248201527f416464726573733a2063616c6c20746f206e6f6e2d636f6e74726163740000006044820152606401610b5c565b50816109f3565b6109f383838151156125b55781518083602001fd5b8060405162461bcd60e51b8152600401610b5c91906129ef565b6000602082840312156125e157600080fd5b5035919050565b600080604083850312156125fb57600080fd5b50508035926020909101359150565b80356001600160a01b038116811461262157600080fd5b919050565b6000806040838503121561263957600080fd5b6126428361260a565b946020939093013593505050565b60008060006060848603121561266557600080fd5b833592506020840135915061267c6040850161260a565b90509250925092565b60006020828403121561269757600080fd5b6111678261260a565b6000602082840312156126b257600080fd5b5051919050565b634e487b7160e01b600052601160045260246000fd5b6000826126ec57634e487b7160e01b600052601260045260246000fd5b500490565b81810381811115612704576127046126b9565b92915050565b8082028115828204841417612704576127046126b9565b80820180821115612704576127046126b9565b602080825260139082015272155cd95c881b9bdd081c9959da5cdd195c9959606a1b604082015260600190565b602080825260139082015272115512081d1c985b9cd9995c8819985a5b1959606a1b604082015260600190565b634e487b7160e01b600052603260045260246000fd5b634e487b7160e01b600052603160045260246000fd5b805167ffffffffffffffff8116811461262157600080fd5b8051600381900b811461262157600080fd5b600060808284031280156127f757600080fd5b600090506040516080810181811067ffffffffffffffff8211171561282a57634e487b7160e01b83526041600452602483fd5b6040528351600781900b811461283e578283fd5b815261284c602085016127ba565b602082015261285d604085016127d2565b604082015260609384015193810193909352509092915050565b60008160030b637fffffff198103612891576128916126b9565b60000392915050565b6001815b60018411156128d5578085048111156128b9576128b96126b9565b60018416156128c757908102905b60019390931c92800261289e565b935093915050565b6000826128ec57506001612704565b816128f957506000612704565b816001811461290f576002811461291957612935565b6001915050612704565b60ff84111561292a5761292a6126b9565b50506001821b612704565b5060208310610133831016604e8410600b8410161715612958575081810a612704565b612965600019848461289a565b8060001904821115612979576129796126b9565b029392505050565b600061116783836128dd565b60006020828403121561299f57600080fd5b8151801515811461116757600080fd5b60005b838110156129ca5781810151838201526020016129b2565b50506000910152565b600082516129e58184602087016129af565b9190910192915050565b6020815260008251806020840152612a0e8160408501602087016129af565b601f01601f1916919091016040019291505056fea2646970667358221220292cdd3873c10305fd007f889fdea8156b905f736454199fdc90bbee8a53931364736f6c634300081c0033",
  "linkReferences": {},
  "deployedLinkReferences": {}
}